:0400000002008B323D
:01000B0032C2
:0100130032BA
:01001B0032B2
:0100230032AA
:01002B0032A2
:01003300329A
:01003B003292
:01004300328A
:01004B003282
:01005300327A
:01005B003272
:01006300326A
:01006B003262
:01007300325A
:01007B003252
:030083000200EE8A
:0300EB000200868A
:0300860002027BF8
:2000EE00C020C0E0C0F0C082C083C007C006C005C004C003C002C001C000C0D075D000E567
:20010E001020E018752C0090000875F0401209D6752C0190000B75F0401209D60510850E5F
:20012E0082850F8312008953C4EFD0D0D000D001D002D003D004D005D006D007D083D08296
:20014E00D0F0D0E0D0203290000875F040120A80858212858313E51120E00E7525008512BD
:20016E0082851383120702800C752501851282851383120702051122AE087F007525018EAD
:20018E00828F83020702850C2C752D00900064120AE7AE82AF83AC0B7D00EC2EF515ED3F76
:2001AE00F516E51420E00E752500851582851683120702800C7525018515828516831207B6
:2001CE0002051422AF8290000875F040C007120A8085821985831AD007AD17AE18C374E841
:2001EE009D74039E400CE51BB51907E51CB51A028007E4F517F51880080517E4B51702056D
:20020E0018AD17AE18C3ED94F4EE9401500E752101851982851A831205EE804ABF0102802B
:20022E000FBF02028018BF03028021BF0438802A7582C0120561758280120555802875828B
:20024E00C2120561758280120555801A7582C4120561758200120555800C7582C612056182
:20026E0075820012055585191B851A1C227E007F007D0075C7AA75C7554397C0E59630E35E
:20028E00FB75C7AA75C755439602E59720E0FB75C7AA75C7555397DF53B3FB43B40453B34A
:2002AE007F53B47FC007C006C0051205CD7582041205B7D005D006D007438E08758CC1759A
:2002CE008A80438901438810750E55750F0175C60B75C5DC75C40F439C02D2AF2097100E26
:2002EE00BE00010F8E038F04BBD004BC07010DED24F65003020532ED240A83F582ED240ED7
:20030E0083F583E4732751A6226AD2DC32022803030304040404050505750E55750F012024
:20032E0097030205348E038F04C374149BE49C500BC3EB94D0EC940750027D067E007F008A
:20034E00020534539CFD8D82C007C006C0051201D2D005D006D0072097030205348E038F8B
:20036E0004C374149BE49C5028C3EB94D0EC9407501FAC0ABC0E0050098C03740A2BF50A75
:20038E00800FBC14005005750A148005EC24ECF50A7E007F000205348D82C007C006C005EF
:2003AE001201D2D005D006D0072097030205348E038F04C374149BE49C5052C3EB94D0ECA9
:2003CE0094075049AC0A8C027B00752C0A8B2D8A828B83C005C004120B96AA82AB83D00435
:2003EE00D005C3EA9409EB64809480500BBC17005006EC04F50A8015AC0ABC170040098C87
:20040E0003EB24FDF50A8005EC24F7F50A7E007F000205348D82C007C006C0051201D2D0E7
:20042E0005D006D0072097030205348E038F04C374149BE49C501EC3EB94D0EC9407501511
:20044E00AC09BC320050098C03740A2BF5098005EC24CEF5097E007F000205348D82C007ED
:20046E00C006C0051201D2D005D006D0072097030205348E038F04C374149BE49C503FC3AB
:20048E00EB94D0EC94075036AC098C027B00752C0A8B2D8A828B83C005C004120B96AA824F
:2004AE00AB83D004D005C3EA9409EB6480948050088C03EB04F5098005EC24F7F5097E004E
:2004CE007F008062750800439C027D008058750E86750F0130974F8E038F04C374149BE468
:2004EE009C500BC3EB94D0EC940750027D087E007F008032750E94750F013097298E038F2C
:20050E0004C374149BE49C500BC3EB94D0EC940750027D007E007F00800C750C00750B0016
:1A052E007D0880027D00B292E588FC30E5FA758CC1758A805388DF0202EA8A
:0700E400E4F522F523F524E9
:20054800E582540124FF9280C290D290228582F5E5F430E7FB53F47F22AF82D291C2918F87
:20056800F5E5F430E7FB53F47F227582C012056175F500E5F430E7FB53F47F7582C2120591
:200588006175F500E5F430E7FB53F47F7582C412056175F500E5F430E7FB53F47F7582C6CC
:2005A80012056175F500E5F430E7FB53F47F22E582FF600B1F74075F4488F5820205617594
:2005C800828002056153B1FE43B20153B3FE43B40153B3FD43B40275F40875F37F120572D8
:2005E8007582040205B7AE82AF837582C0C007C006120561D006D007752CE8752D038E8231
:200608008F83C007C006120BCCAC82AD83D006D007EC2408F582ED340CF583E493FDE52191
:20062800035480FC4DF5F5E5F430E7FB53F47F7582C2C007C006C004120561D004D006D0FB
:2006480007752C64752D008E828F83C007C006C004120BCC752C0A752D00120B96AB82ADAE
:2006680083D004D006D007EB2408F582ED340CF583E4934CF5F5E5F430E7FB53F47F7582E6
:20068800C4C007C006120561D006D007752C0A752D008E828F83C007C006120BCC752C0A4C
:2006A800752D00120B96AC82AD83D006D007EC2408F582ED340CF583E493F5F5E5F430E74D
:2006C800FB53F47F7582C6C007C006120561D006D007752C0A752D008E828F83120B96AE12
:2006E80082AF83EE2408F582EF340CF583E493F5F5E5F430E7FB53F47F2285822685832776
:20070800752CE8752D03120BCCAC82AD83EC2408FCED340CFD752C64752D0085268285279E
:2007280083C005C004120BCC752C0A752D00120B96AA82AB83EA2408FAEB340CFB752C0A81
:20074800752D00852682852783C003C002120BCC752C0A752D00120B96A882A983E82408BB
:20076800F8E9340CF9752C0A752D00852682852783C001C000120B96AE82AF83D000D00177
:20078800D002D003D004D005EE2408F52AEF340CF52B75280074EC252850030209CC752969
:2007A8000074EC252950030209C7C3E528952950030208867582C0C005C004C003C002C068
:2007C80001C000120561D000D001D002D003D004D0058C828D83E493FFE525035480FE4F27
:2007E800F5F5E5F430E7FB53F47F7582C2C006C005C004C003C002C001C000120561D00000
:20080800D001D002D003D004D005D0068A828B83E4934EF5F5E5F430E7FB53F47F7582C4A6
:20082800C005C004C003C002C001C000120561D000D001D002D003D004D00588828983E4C0
:2008480093F5F5E5F430E7FB53F47F7582C6C005C004C003C002C001C000120561D000D0FE
:2008680001D002D003D004D005852A82852B83E493F5F5E5F430E7FB53F47F0209C27582E7
:20088800C0C005C004C003C002C001C000120561752CE8752D03852282852383120BCCAE70
:2008A80082AF83D000D001D002D003D004D005EE2408F582EF340CF583E493FFE52403547F
:2008C800804FF5F5E5F430E7FB53F47F7582C2C005C004C003C002C001C000120561752C45
:2008E80064752D00852282852383120BCC752C0A752D00120B96AE82AF83D000D001D002D8
:20090800D003D004D005EE2408F582EF340CF583E493FFE5240354804FF5F5E5F430E7FBA1
:2009280053F47F7582C4C005C004C003C002C001C000120561752C0A752D00852282852309
:2009480083120BCC752C0A752D00120B96AE82AF83D000D001D002D003D004D005EE2408B8
:20096800F582EF340CF583E493F5F5E5F430E7FB53F47F7582C6C005C004C003C002C001B3
:20098800C000120561752C0A752D00852282852383120B96AE82AF83D000D001D002D0031B
:2009A800D004D005EE2408F582EF340CF583E493F5F5E5F430E7FB53F47F05290207A90557
:0E09C8002802079D85262285272385252422C7
:120C08003F065B4F666D7D077F67777C585E797180009B
:2009D60085822D85832E85F02F120B7AFCBC3B005003020A72852D82852E83852FF0E41294
:2009F6000ACC04252DF9E4352EFAAB2F89828A838BF0120B7AF8B83B004004E52C600AB815
:200A16006300404D7401B52C4889828A838BF0E4120ACC7402252DF531E4352EF532852FC3
:200A3600338531828532838533F0120B7AF530C39417400D8531828532838533F0E4020AD2
:200A5600CCAF300F8531828532838533F0EF020ACC0889828A838BF0E8020ACC0C852D824A
:200A7600852E83852FF0EC020ACCAD82AE83AFF074022DFAE43EFB8F048A828B838CF012CE
:200A96000B7AFA8A2C752D00900064C007C006C005120AE7AB82AC83D005D006D0070DBD78
:160AB60000010E8D828E838FF0120B7A7F002BF582EF3CF58322FF
:0600BA00E478FFF6D8FD1A
:200098007900E94400601B7A00900C1A780175A000E493F2A308B8000205A0D9F4DAF275E8
:0200B800A0FFA7
:1B0ACC0020F71130F6138883A88220F509F6A8837583002280FEF280F5F02229
:1D0AE700E582852CF0A4C582C0F0852DF0A4D0F025F0C583852CF0A42583F5832265
:200B0400E52C452D60467A01E52C25E0F52CE52D334012F52DE582952CE583952D40030A9E
:200B240080E6C3E52D13F52DE52C13F52CC3E582952CF5F0E583952D4005F58385F082C38B
:0D0B4400E52D13F52DE52C13F52CDAE1223B
:200B51007A10E4FBFCE58225E0F582E58333F583EB33FBEC33FCEB952CF5F0EC952D400670
:090B7100FCABF0438201DADD2245
:2000C0007800E84400600A790175A000E4F309D8FC7800E84400600C7900900001E4F0A33E
:0400E000D8FCD9FA75
:0F008900E473758133120C04E582600302008674
:1C0B7A0020F71430F6148883A88220F507E6A88375830022E280F7E49322E0228A
:200B9600C2D5E58330E70DD2D5E4C39582F582E49583F583E52D30E70BE4C3952CF52CE42B
:160BB600952DF52D120B0430D50BE4C39582F582E49583F5832249
:200BCC00C2D5E58330E70DD2D5E4C39582F582E49583F583E52D30E70DB2D5E4C3952CF57C
:180BEC002CE4952DF52D120B5130D50BE4C39582F582E49583F58322B4
:040C040075820022D3
:00000001FF
